:1006B40008140000000000000000021E00000208F0
:1006C4000000020A0000020C0000021C0000020EDE
:0206D40000170D
:1009E700120A66120AA11208D8120A471203401205
:1009F70007BF1207FC12097D12071F1204A780E91F
:1007FC00AC0EAD0FE41201A2AB13AA12A911A810F2
:10080C00120124601240107580107F05120AF8E462
:10081C00FF120AF8D28E22E4F5807F05120AF8E462
:0C082C00FF120AF8C28EE4F51AF51B2238
:03000B00020648A2
:10064800C0E0C0F0C083C082C0D075D000C000C078
:1006580001C002C003C004C005C006C007050BE501
:100668000B7002050AC39464E50A94004023750AD6
:1006780000750B007516007517007580007F051250
:100688000AF8E4FF120AF8751A00751B00C28CC23A
:100698008ED007D006D005D004D003D002D001D028
:0C06A80000D0D0D082D083D0F0D0E0325F
:03001B00020904D3
:10090400C0E0C0D0050DE50D7002050CC39464E58C
:100914000C94004011750C00750D007401951BF5C5
:0B0924001BE4951AF51AD0D0D0E03289
:10071F00E549701AE54A7016D28CF51675170175F2
:10072F0080107F05120AF8E4FF120AF8D28EE5094D
:10073F00640145087007F5187519018005E4F5186F
:10074F00F5197580FFE51745166002C280E519455A
:10075F00186002C281E51B451A6002C2827F041233
:07076F000AF8E4FF020AF89A
:10097D001208388F138E128D118C10E4FFFE7D201E
:10098D007C41AB13AA12A911A81012001E1201DB93
:05099D008E1C8F1D22DD
:100AE500051FE51F7002051E6403451E7004F51EF3
:030AF500F51F22C8
:0D000E00C374019509F509E49508F5082271
:100A0700E51F6402451E7017050FE50F7002050EFE
:100A1700C39463E50E94004006750E00750F6322BC
:1009C500E51F6402451E7019E50F150F7002150E1F
:1009D500D3E50F940AE50E94005006750E00750FC9
:0209E5000A22E4
:1004A700E51F451E705A7DC17F01120874900A2806
:1004B700E493FD7F02120874AE1CAF1D7C007D64BF
:1004C70012026E74272FF582740A3EF583E493FDBA
:1004D7007F06120874AE1CAF1D7C007D0A12026EE7
:1004E7007C007D0A12026E74372DF582740A3CF582
:1004F70083E493FD7F07120874AE1CAF1D0205A2AB
:10050700E51F6401451E70587DC17F011208749074
:100517000A29E493FD7F02120874E54B75F00A84FB
:10052700900A2793FD7F04120874E54B75F00A843F
:10053700E5F0900A2793FD7F051208747DBF7F06BB
:10054700120874E54A75F00A84900A2793FD7F071D
:10055700120874E54A75F00A84E5F0900A27804D81
:10056700E51F6402451E704C7DC17F01120874901F
:100577000A2AE493FD7F02120874AE0EAF0F7C00C7
:100587007D0A12026E74272FF582740A3EF583E402
:1005970093FD7F07120874AE0EAF0F7C007D0A1221
:1005A700026E74272DF582740A3CF583E493FD7F70
:0505B700081208742287
:1007BF00E53A640145397007F539F53A120AE5E56E
:1007CF003C6401453B7007F53BF53C12000EE542DA
:1007DF00640145417007F541F542120A07E544648B
:0D07EF000145437007F543F5441209C5228A
:100AA100D2AFE4F589758C3C758AB0D2A9C28C7538
:0A0AB1008DFC758B18D2ABC28E22AB
:10034000E4F560F561D2C4D2C275B0DFAFB0F5603C
:100350008F6153610FF560E561640F4560605A7FFE
:10036000147E007D007C001208A9AFB07560008F7C
:100370006153610F756000E561640F45606023AFF4
:10038000B07560008F61E5607018E5612429600C2C
:1003900024FC700E753B00753C01800675390075B4
:1003A0003A01E561640F4560600FAFB07560008F82
:1003B0006153610F75600080E9D2C4D2C275B0EF9D
:1003C000AFB07560008F6153610F756000E56164C7
:1003D0000F456070030204A67F147E007D007C0040
:1003E0001208A9AFB07560008F6153610F7560008E
:1003F000E561640F45606023AFB07560008F61E513
:10040000607018E5612419600C24FC700E754300BF
:100410007544018006754100754201E561640F4530
:100420006070030204A6AFB07560008F6153610F66
:10043000756000E5446401454370E0E51F640145D3
:100440001E70D8120A477DC17F01120874900A29D4
:10045000E493FD7F02120874E54A75F00A84900A5D
:100460002793FD7F04120874E54A75F00A84E5F0CD
:10047000900A2793FD7F051208747DBF7F0612083E
:1004800074E54975F00A84900A2793FD7F071208E6
:1004900074E54975F00A84E5F0900A2793FD7F081A
:0604A00012087402041BA7
:0104A6002233
:1006D600085080828486888A8C00085881838587A2
:0D06E600898B8D0007490100000000000015
:100A8500E4FEEEC3940874809480500FC297EF1370
:0B0A950092A3EFC313FFD2970E80E77F
:010AA0002233
:100AD100C29300C29700D29300120A85AF05120A91
:040AE10085C2932215
:10077600E4FDC29300C29700D29300120A85E4FFFB
:10078600EFC39408748094805011C297EDC313FD93
:1007960030A303430580D2970F80E5C29300C2972A
:1007A60000D29700C2A300D2A300EDC4540F75F087
:0807B6000AA4FFED540F2FFF10
:0107BE002218
:1008D800E4FD7F8E120AD1E4FCECC3940374809487
:1008E80080501274502CF8E6FF74492CF8E6FD127B
:0C08F8000AD10C80E47D807F8E020AD1C2
:100A4700E4FCECC3940374809480501274582CF81F
:0E0A5700E6FF12077674492CF8A6070C80E41F
:010A6500226E
:040ABB007F057E0035
:100ABF007C007D0A12025CEF1FAC0670011E4C70A9
:020ACF00F6220D
:02092F00AB0714
:10093100E4FAEAC39408748094805012C294EB13D1
:100941009294120ABBD294EBC313FB0A80E47F0595
:050951007E00020ABF58
:1009A200E4FAEAC39408748094805014C294EBC3AE
:1009B20013FBD294309403430380120ABB0A80E2F1
:0209C200AF0381
:0109C4002210
:10095600C200D2947F0C7E00120ABFC2947F507EE2
:1009660000120ABFD2947F0A7E00120ABFA2949296
:0609760000120ABBA20002
:01097C002258
:100838001209567FCC12092F7F4412092F1209562C
:100848007FCC12092F7FBE12092F1209A2A9071205
:1008580009A2AB07120956EBFEE9FFFDAC06E4124C
:0C08680001A2E4FBFA7980783D02001E3A
:100A2700C0F9A4B0999282F880908883C6A1868E77
:100A37004079243019120278001008033621060E77
:1006F300202821000000000000000000000000008E
:1007030000000000000000000000000000000000E6
:0B0713000000000000000000000000DB
:100874008D621FA8077401088002C333D8FCF58079
:100884007F06120AF8E4FF120AF88562807F0712D5
:100894000AF87F017E007D007C001208A97580FFA4
:0508A400E4FF020AF868
:0808A9008F668E658D648C637F
:1008B100E47F5AFEFDFCAB66AA65A964A863120237
:1008C100C38F6A8E698D688C67786774FF12032203
:0608D100EC4D4E4F70F3E8
:0108D70022FE
:100A66007580FF7F04120AF87F07120AF8E4FF1266
:0F0A76000AF8E4F5807F05120AF8E4FF020AF897
:0B0AF80053A01FEFC43354E042A022C3
:10001E00EC4D6011E8497017ED33EC3304600DE4DC
:10002E00FCFFFEFD22E933E8330470F802024712AA
:10003E00021258046009E4CC2481500628500902AB
:10004E00025128400302024EC0E0EB4A7044B980D0
:10005E0006D0E0FB02023DEF4E701CBD8008EBFFA8
:10006E00EAFEE9FD80EBE98DF0A4FEE5F002010762
:10007E00E9CDF9EAFEEBFFEF89F0A4FCE5F0CE89BD
:10008E00F0A42EFFE435F0CD89F0A42DFEE435F07A
:10009E008067EF4E7005BD80D780C3EF8BF0A4ACA8
:1000AE00F0EE8BF0A42CFCE435F0F8EF8AF0A42CE3
:1000BE00E5F038FCE433CB8DF0A42CFCE5F03BF8F6
:1000CE00EE8AF0A42CFCE5F038F8E433CF89F0A4E6
:1000DE002CFCE5F038CF3400CE89F0A42FFFE5F0EC
:1000EE003EFEE433C98DF0A42EFEE5F039CD8AF044
:1000FE00A42FFFE5F03EFEE43DFD33D0E0FB5007BC
:10010E000BBB000F020251EC2CFCEF33FFEE33FE63
:06011E00ED33FD02022991
:1001240074F8CC6480CCC86480C8F58204604FC382
:10013400EB9FF5F0EA9E42F0E99D42F0E89C45F021
:10014400603C501DE5825FFFE582D313CB5BCBF4AB
:100154002B5582FB50280ABA002409B900200880D4
:100164001DE5825BFBE582D313CF5FCFF4C3132F6E
:100174005582FF50090EBE00050DBD00010CC3EBF6
:100184009FF5F0EA9E42F0E99D42F0E89C45F0605C
:0901940007CC4820E701B3EC227E
:10019D0075F020800E75F010800575F0087D007EDD
:1001AD00007F003392D530D503120312EC3340108B
:1001BD00EF33FFEE33FEED33FDEC33FCD5F0ED22E6
:0E01CD00E5F0247EA2D513CC92E7CDCEFF2222
:1001DB00EDD2E7CD33EC3392D524814006E4FFFE1C
:1001EB00FDFC22FCE4CFCECDCC24E0501174FF807B
:1001FB00EDC3CC13CCCD13CDCE13CECF13CF047018
:07020B00F030D5DE02031202
:10021200E9D2E7C933E833F892D5EDD2E7CD33EC32
:0702220033FC5002B2D522AB
:10022900EC30E7100FBF000C0EBE00080DBD000436
:100239000BEB6014A2D5EB13FCED92E7FD2274FFE2
:10024900FCFDFEFF22E480F8A2D574FF13FC7D803B
:03025900E480EF4F
:030000000205BC3A
:0C05BC00787FE4F6D8FD75816A02060322
:10025C00EF8DF0A4A8F0CF8CF0A428CE8DF0A42EB6
:02026C00FE2270
:10026E00BC000BBE0029EF8DF084FFADF022E4CC74
:10027E00F875F008EF2FFFEE33FEEC33FCEE9DEC3D
:10028E00984005FCEE9DFE0FD5F0E9E4CEFD22ED83
:10029E00F8F5F0EE8420D21CFEADF075F008EF2FCD
:1002AE00FFED33FD4007985006D5F0F222C398FDBE
:0502BE000FD5F0EA225B
:1002C300E88FF0A4CC8BF0A42CFCE98EF0A42CFCDA
:1002D3008AF0EDA42CFCEA8EF0A4CDA8F08BF0A458
:1002E3002DCC3825F0FDE98FF0A42CCD35F0FCEBB7
:1002F3008EF0A4FEA9F0EB8FF0A4CFC5F02ECD397C
:0F030300FEE43CFCEAA42DCE35F0FDE43CFC22E8
:0E031200C3E49FFFE49EFEE49DFDE49CFC22FC
:100320007401FF3395E0FEFDFC080808E6CF2FF6C8
:1003300018E6CE3EF618E6CD3DF618E6CC3CF622A1
:1005C8000209E7E493A3F8E493A34003F68001F259
:1005D80008DFF48029E493A3F85407240CC8C33334
:1005E800C4540F4420C8834004F456800146F6DF03
:1005F800E4800B01020408102040809006B4E47ED9
:10060800019360BCA3FF543F30E509541FFEE493F7
:10061800A360010ECF54C025E060A840B8E493A3BE
:10062800FAE493A3F8E493A3C8C582C8CAC583CAE9
:10063800F0A3C8C582C8CAC583CADFE9DEE780BEA1
:01071E0000DA
:00000001FF
